:020000040800F2
:1000000000000120CD150008BD140008C51400082B
:10001000CD140008D5140008DD140008000000000D
:10002000000000000000000000000000C1480008BF
:10003000E51400080000000051490008E914000818
:100040001D1600081D1600081D1600081D160008C4
:100050001D1600081D1600081D1600081D160008B4
:100060001D1600081D1600081D1600081D160008A4
:100070001D1600081D1600081D1600081D16000894
:100080001D1600081D1600081D1600081D16000884
:100090001D1600081D1600081D1600081D16000874
:1000A0001D1600081D1600081D1600081D16000864
:1000B0001D16000800000000000000001D160008CA
:1000C0001D16000800000000000000001D160008BA
:1000D000000000001D1600081D16000800000000AA
:1000E0001D1600081D16000800000000000000009A
:1000F0000000000000000000000000000000000000
:100100000000000000000000000000001D160008B4
:1001100000000000000000001D1600081D16000869
:100120001D1600081D1600081D1600081D160008E3
:100130001D16000800000000000000000000000084
:100140001D1600081D1600081D1600081D160008C3
:100150001D1600081D1600081D1600081D160008B3
:100160001D1600081D1600081D16000800000000DE
:100170001D1600081D160008000000000000000009
:0C0180001D1600081D1600081D160008C2
:1001C00053B94AB9002908BF00281CBF4FF0FF31BE
:1001D0004FF0FF3000F00CB8ADF1080C6DE904CE23
:1001E00006F07EFFDDF804E0DDE9022304B070478D
:1001F000704700BF844641EA000313F003036DD14A
:10020000403A41D351F8043B40F8043B51F8043BD9
:1002100040F8043B51F8043B40F8043B51F8043BE0
:1002200040F8043B51F8043B40F8043B51F8043BD0
:1002300040F8043B51F8043B40F8043B51F8043BC0
:1002400040F8043B51F8043B40F8043B51F8043BB0
:1002500040F8043B51F8043B40F8043B51F8043BA0
:1002600040F8043B51F8043B40F8043B51F8043B90
:1002700040F8043B51F8043B40F8043B51F8043B80
:1002800040F8043B403ABDD2303211D351F8043B20
:1002900040F8043B51F8043B40F8043B51F8043B60
:1002A00040F8043B51F8043B40F8043B103AEDD2CF
:1002B0000C3205D351F8043B40F8043B043AF9D220
:1002C000043208D0D2071CBF11F8013B00F8013BF3
:1002D00001D30B8803806046704700BF082A13D300
:1002E0008B078DD010F003038AD0C3F10403D21A18
:1002F000DB071CBF11F8013B00F8013B80D331F84C
:10030000023B20F8023B7BE7043AD9D3013A11F8CB
:10031000013B00F8013BF9D20B7803704B78437036
:100320008B7883706046704700000000000000007A
:1003300001F0FF01102A2BDB10F0070F08D010F896
:10034000013B013A8B422DD010F0070F42B3F6D19A
:10035000F0B441EA012141EA014122F007047FF0B3
:1003600000070023F0E80256083C85EA010586EA0A
:10037000010685FA47F5A3FA87F586FA47F6A5FA46
:1003800087F68EB9EED1F0BC01F0FF0102F0070252
:1003900032B110F8013B013A83EA010313B1F8D1FD
:1003A0000020704701387047002D06BF35460338DE
:1003B000073815F0010F07D1013015F4807F02BF17
:1003C000013015F4C03F0130F0BC0138704700BF68
:1003D000000000000000000000000000000000001D
:1003E000000000000000000000000000000000000D
:1003F00000000000000000000000000000000000FD
:1004000030B490F800F020F007016FF0000C10F00D
:10041000070491F820F040F048804FF000046FF09E
:100420000700D1E9002391F840F000F1080082FABA
:100430004CF2A4FA8CF283FA4CF3A2FA8CF34BBB85
:10044000D1E9022382FA4CF200F10800A4FA8CF2FE
:1004500083FA4CF3A2FA8CF3E3B9D1E9042382FACC
:100460004CF200F10800A4FA8CF283FA4CF3A2FAE1
:100470008CF37BB9D1E9062301F1200182FA4CF219
:1004800000F10800A4FA8CF283FA4CF3A2FA8CF380
:10049000002BC6D0002A04BF04301A4612BAB2FAA2
:1004A00082F200EBD20030BC7047D1E9002304F0A7
:1004B0000305C4F100004FEAC50514F0040F91F8DC
:1004C00040F00CFA05F562EA05021CBF63EA050379
:1004D00062464FF00004AAE781F0004102E000BF4D
:1004E00083F0004330B54FEA41044FEA430594EAF4
:1004F000050F08BF90EA020F1FBF54EA000C55EA2F
:10050000020C7FEA645C7FEA655C00F0E2804FEAFF
:100510005454D4EB5555B8BF6D420CDD2C4480EAE1
:10052000020281EA030382EA000083EA010180EA11
:10053000020281EA0303362D88BF30BD11F0004F5F
:100540004FEA01314FF4801C4CEA113102D0404295
:1005500061EB410113F0004F4FEA03334CEA1333D0
:1005600002D0524263EB430394EA050F00F0A780E8
:10057000A4F10104D5F1200E0DDB02FA0EFC22FAE3
:1005800005F2801841F1000103FA0EF2801843FAD7
:1005900005F359410EE0A5F120050EF1200E012AC8
:1005A00003FA0EFC28BF4CF0020C43FA05F3C01806
:1005B00051EBE37101F0004507D54FF0000EDCF17F
:1005C000000C7EEB00006EEB0101B1F5801F1BD328
:1005D000B1F5001F0CD349085FEA30004FEA3C0C2C
:1005E00004F101044FEA445212F5800F80F09A8022
:1005F000BCF1004F08BF5FEA500C50F1000041EB26
:10060000045141EA050130BD5FEA4C0C404141EB29
:100610000101013C28BFB1F5801FE9D291F0000F24
:1006200004BF01460020B1FA81F308BF2033A3F1D3
:100630000B03B3F120020CDA0C3208DD02F1140CCA
:10064000C2F10C0201FA0CF021FA02F10CE002F105
:100650001402D8BFC2F1200C01FA02F120FA0CFCFE
:10066000DCBF41EA0C019040E41AA2BF01EB045147
:10067000294330BD6FEA04041F3C1CDA0C340EDC45
:1006800004F11404C4F1200220FA04F001FA02F388
:1006900040EA030021FA04F345EA030130BDC4F146
:1006A0000C04C4F1200220FA02F001FA04F340EA3B
:1006B0000300294630BD21FA04F0294630BD94F0EC
:1006C000000F83F4801306BF81F480110134013DD3
:1006D0004EE77FEA645C18BF7FEA655C29D094EA44
:1006E000050F08BF90EA020F05D054EA000C04BFC2
:1006F0001946104630BD91EA030F1EBF00210020AD
:1007000030BD5FEA545C05D14000494128BF41F04B
:10071000004130BD14F580043CBF01F5801130BDAF
:1007200001F0004545F0FE4141F470014FF000003A
:1007300030BD7FEA645C1ABF194610467FEA655CEB
:100740001CBF0B46024650EA013406BF52EA03358D
:1007500091EA030F41F4002130BD00BF90F0000F7B
:1007600004BF0021704730B54FF4806404F13204B7
:100770004FF000054FF0000150E700BF90F0000F70
:1007800004BF0021704730B54FF4806404F1320497
:1007900010F0004548BF40424FF000013EE700BF67
:1007A00042004FEAE2014FEA31014FEA02701FBFF7
:1007B00012F07F4393F07F4F81F06051704732F029
:1007C0007F4208BF704793F07F4F04BF41F4002180
:1007D000704730B54FF4607401F0004521F00041DE
:1007E0001CE700BF50EA010208BF704730B54FF068
:1007F00000050AE050EA010208BF704730B511F069
:10080000004502D5404261EB41014FF4806404F1A0
:1008100032045FEA915C3FF4D8AE4FF003025FEA26
:10082000DC0C18BF03325FEADC0C18BF033202EBAA
:10083000DC02C2F1200300FA03FC20FA02F001FA04
:1008400003FE40EA0E0021FA02F11444BDE600BFA7
:1008500070B54FF0FF0C4CF4E06C1CEA11541DBF56
:100860001CEA135594EA0C0F95EA0C0F00F0DEF821
:100870002C4481EA030621EA4C5123EA4C5350EA06
:10088000013518BF52EA033541F4801143F4801357
:1008900038D0A0FB02CE4FF00005E1FB02E506F0E8
:1008A0000042E0FB03E54FF00006E1FB03569CF03D
:1008B000000F18BF4EF0010EA4F1FF04B6F5007F43
:1008C00064F5407404D25FEA4E0E6D4146EB0606B5
:1008D00042EAC62141EA55514FEAC52040EA5E503E
:1008E0004FEACE2EB4F1FD0C88BFBCF5E06F1ED8E8
:1008F000BEF1004F08BF5FEA500E50F1000041EB1F
:10090000045170BD06F0004646EA010140EA0200CB
:1009100081EA0301B4EB5C04C2BFD4EB0C0541EAED
:10092000045170BD41F480114FF0000E013C00F302
:10093000AB8014F1360FDEBF002001F0004170BD26
:10094000C4F10004203C35DA0C341BDC04F114043F
:10095000C4F1200500FA05F320FA04F001FA05F2CB
:1009600040EA020001F0004221F0004110EBD37098
:1009700021FA04F642EB06015EEA430E08BF20EAC4
:10098000D37070BDC4F10C04C4F1200500FA04F367
:1009900020FA05F001FA04F240EA020001F00041F9
:1009A00010EBD37041F100015EEA430E08BF20EA6C
:1009B000D37070BDC4F1200500FA05F24EEA020EB4
:1009C00020FA04F301FA05F243EA020321FA04F0E3
:1009D00001F0004121FA04F220EA020000EBD3709A
:1009E0005EEA430E08BF20EAD37070BD94F0000F9A
:1009F0000FD101F00046400041EB010111F4801FCE
:100A000008BF013CF7D041EA060195F0000F18BF7E
:100A1000704703F00046520043EB030313F4801FBA
:100A200008BF013DF7D043EA0603704794EA0C0F74
:100A30000CEA135518BF95EA0C0F0CD050EA41068A
:100A400018BF52EA4306D1D181EA030101F0004107
:100A50004FF0000070BD50EA410606BF104619462F
:100A600052EA430619D094EA0C0F02D150EA01363B
:100A700013D195EA0C0F05D152EA03361CBF10467C
:100A800019460AD181EA030101F0004141F0FE411B
:100A900041F470014FF0000070BD41F0FE4141F49F
:100AA000780170BD70B54FF0FF0C4CF4E06C1CEA9F
:100AB00011541DBF1CEA135594EA0C0F95EA0C0F54
:100AC00000F0A7F8A4EB050481EA030E52EA03350F
:100AD0004FEA013100F088804FEA03334FF0805530
:100AE00045EA131343EA12634FEA022245EA11155D
:100AF00045EA10654FEA00260EF000419D4208BF0E
:100B0000964244F1FD0404F5407402D25B084FEABA
:100B10003202B61A65EB03055B084FEA32024FF466
:100B200080104FF4002CB6EB020E75EB030E22BFC3
:100B3000B61A754640EA0C005B084FEA3202B6EB83
:100B4000020E75EB030E22BFB61A754640EA5C0032
:100B50005B084FEA3202B6EB020E75EB030E22BFC2
:100B6000B61A754640EA9C005B084FEA3202B6EBC3
:100B7000020E75EB030E22BFB61A754640EADC0082
:100B800055EA060E18D04FEA051545EA16754FEAE4
:100B900006164FEAC30343EA52734FEAC2025FEA02
:100BA0001C1CC0D111F4801F0BD141EA00014FF091
:100BB00000004FF0004CB6E711F4801F04BF014362
:100BC0000020B4F1FD0C88BFBCF5E06F3FF6AFAE7E
:100BD000B5EB030C04BFB6EB020C5FEA500C50F10E
:100BE000000041EB045170BD0EF0004E4EEA113191
:100BF00014EB5C04C2BFD4EB0C0541EA045170BD98
:100C000041F480114FF0000E013C90E645EA060EDB
:100C10008DE60CEA135594EA0C0F08BF95EA0C0F09
:100C20003FF43BAF94EA0C0F0AD150EA01347FF451
:100C300034AF95EA0C0F7FF425AF104619462CE728
:100C400095EA0C0F06D152EA03353FF4FDAE10468B
:100C5000194622E750EA410618BF52EA43067FF4DC
:100C6000C5AE50EA41047FF40DAF52EA43057FF46C
:100C7000EBAE12E74FF0FF3C06E000BF4FF0010C77
:100C800002E000BF4FF0010C4DF804CD4FEA410CDB
:100C90007FEA6C5C4FEA430C18BF7FEA6C5C1BD0A8
:100CA00001B050EA410C0CBF52EA430C91EA030F29
:100CB00002BF90EA020F0020704710F1000F91EA86
:100CC000030F58BF994208BF90422CBFD8176FEA54
:100CD000E37040F0010070474FEA410C7FEA6C5C22
:100CE00002D150EA013C07D14FEA430C7FEA6C5C29
:100CF000D6D152EA033CD3D05DF8040B704700BF55
:100D00008446104662468C461946634600E000BFA2
:100D100001B5FFF7B7FF002848BF10F1000F01BD74
:100D20004DF808EDFFF7F4FF0CBF012000205DF83F
:100D300008FB00BF4DF808EDFFF7EAFF34BF0120C4
:100D400000205DF808FB00BF4DF808EDFFF7E0FF5D
:100D500094BF012000205DF808FB00BF4DF808EDAE
:100D6000FFF7CEFF94BF012000205DF808FB00BF15
:100D70004DF808EDFFF7C4FF34BF012000205DF8F7
:100D800008FB00BF4FEA410C7FEA6C5C02D150EADD
:100D9000013C0AD14FEA430C7FEA6C5C02D152EA73
:100DA000033C02D14FF0000070474FF00100704744
:100DB0004FEA410212F5001215D211D56FF4787383
:100DC000B3EB625212D94FEAC12343F0004343EA26
:100DD000505311F0004F23FA02F018BF4042704701
:100DE0004FF00000704750EA013005D111F000408B
:100DF00008BF6FF0004070474FF00000704700BF21
:100E00000348044B834202D0034B03B11847704799
:100E10000C0700200C070020000000000548064BCE
:100E20001B1AD90F01EBA301491002D0034B03B1E8
:100E3000184770470C0700200C0700200000000036
:100E400010B5064C237843B9FFF7DAFF044B13B112
:100E50000448AFF300800123237010BD1007002069
:100E60000000000020D7000808B5054B1BB105495C
:100E70000548AFF30080BDE80840FFF7CFBF00BFD3
:100E8000000000001407002020D7000810B5044619
:100E90000848218806F08EF8204605F001FE044639
:100EA0002146054806F086F8A0B2BDE8104000F0E3
:100EB000D9B800BF38D7000854D7000838B5044661
:100EC0000F48218806F076F80E4BA1785A7E8A42A8
:100ED00006D093F821200C48BDE8384006F06AB8E7
:100EE0002579E47809482946224606F063F8042D5E
:100EF00000D038BD2046BDE8384000F0ABB800BF98
:100F00007CD70008B0DC0008C8D7000894D70008D8
:100F1000704700BF704700BF704700BF704700BFF9
:100F2000704700BF704700BF704700BF704700BFE9
:100F3000064A07491378074848604FF0000C43F011
:100F40001003A1F802C01370704700BF34070020DF
:100F50003C070020B80B0102014B1888704700BF06
:100F60003C070020064BDA783AB9B0F57A7F86BFA5
:100F70004FF47A721A8018807047024806F01AB847
:100F80003C07002000D80008014B9879704700BF4B
:100F90003C070020024B187800F00100704700BFAA
:100FA00034070020024B1878C0F34000704700BFA0
:100FB00034070020024B1A7860F341021A70704720
:100FC00034070020024B1878C0F38000704700BF40
:100FD0003407002010B5054C05482178C1F3C00145
:100FE00005F0E8FF2078C0F3C00010BD34070020F2
:100FF0001CD80008044B1A7800F0010161F3C30209
:1010000002481A7005F0D6BF3407002038D800080F
:10101000024B1878C0F30010704700BF340700205F
:10102000024B1A7860F304121A70704734070020DC
:10103000014B1868704700BF30070020014B186053
:10104000704700BF30070020014B1880704700BF79
:101050002C070020024B1A7860F345121A70704773
:101060003407002010B506490446064805F0A2FFE3
:101070002046FFF777FF0020FFF7BCFF012010BDDF
:1010800068D8000854D8000808B5012003F034FBE4
:10109000FBE700BF38B572B60B4C002501214FF0BD
:1010A000904001F0BFF8A4FB0530400800EB400081
:1010B000281A80B200EB800040000130013500F0BA
:1010C00053FFADB2EAE700BFABAAAAAA00B599B038
:1010D0004422002106A806F06FFA00234FF40070A6
:1010E000CDE90033CDE90233049301F0BDF8F8B93E
:1010F0001821034601220DEB0100069160210E919B
:101100000B920C920D93109301F08EF9014678B971
:101110000F220023CDE90023684600220023CDE9F9
:101120000223049101F08AFC10B919B05DF804FBA8
:10113000FFF7B0FF70B500248AB000F0F3FEFFF7B0
:10114000C5FFCDE90444CDE906445B4D0894EB6C42
:1011500043F00403EB64EB6C03F004030193019B85
:10116000EB6C43F00103EB64EB6C03F001030293BF
:10117000029BEB6C43F00203EB64EB6C03F00203A5
:1011800040F20141039322464FF09040039B01F04F
:1011900043F84A482246B32101F03EF84FF400429A
:1011A00000234748069404A9CDE90423012600F052
:1011B00055FF40F2014304A94FF09040CDE90436B9
:1011C000CDE9064400F04AFFB3233C48049304A948
:1011D000CDE90564079400F041FF40220023374821
:1011E000069404A9CDE9042300F038FF3548364AB7
:1011F00044634FF48273C0E900234FF4E063C0E915
:101200000243022303614FF40073C0E9056308221F
:101210000723C0E90724C0E90944C0E90B3402F000
:1012200099F8002845D10346284929484FF4E1326E
:10123000C0E900120C22C0E90233C0E90432C0E95F
:101240000633C0E9083302F09BFF034688BB214800
:10125000214943617F228260FF22C0E90013C0E977
:1012600003238361C36101F0E7FE10BBD5F894301E
:101270001B0110D564244FF09040012100F0D2FFF3
:101280000A2000F071FE013CF5D1224601214FF009
:10129000904000F0C1FF03F0B3F9104A104800215C
:1012A00003F0E2F90F4B186000F050FB03F0BAF9BD
:1012B000FEE7FFF7EFFE00BF001002400004004809
:1012C00000080048CC0700200030014000440040E6
:1012D0004807002030080020002800407CD8000883
:1012E00089100008440700200E4B10B4186E40F01F
:1012F000010018661C6E83B004F001040094009C89
:101300009C6D44F080549C659B6D03F08053019369
:10131000019B00220F216FF0010003B05DF8044B28
:1013200000F046BE0010024010B5044696B05422AC
:10133000002101A806F040F90D4B22689A4201D025
:1013400016B010BD4FF400324FF4007301A80192A3
:10135000159301F0DBFC40B9064AD2F8903043F413
:101360000043C2F8903016B010BDFFF793FEF3E7CC
:10137000002800400010024010B51B4A016888B0E8
:1013800000239142CDE90233CDE90433069301D025
:1013900008B010BD03F1804303F504339FED107BCB
:1013A0001A6E42F480521A661A6E02F4805200924B
:1013B000009ADA6C42F00102DA64DB6C03F001039C
:1013C00001930322052302A94FF090408DED027B8B
:1013D000019C0592069300F041FE08B010BD00BFCD
:1013E000C2000000020000000030014000000000C8
:1013F00010B504469CB00021542207A8CDE9021183
:10140000CDE90411069106F0D7F81D4B22689A42E7
:1014100001D01CB010BD022307A8079301F076FC91
:1014200018BB184B9A6D42F400329A659A6D02F41B
:1014300000320092009ADA6C9FED0D7B42F00102BF
:10144000DA64DB6C8DED027B9FED0B7B03F0010317
:10145000019302A907234FF090408DED047B019A80
:10146000069300F0FBFD1CB010BDFFF713FED8E79C
:101470000C0000000200000000000000030000005B
:10148000004400400010024008B5044605F052F93F
:10149000204605F03DF905F04FF9BFF34F8F0549A0
:1014A000054BCA6802F4E0621343CB60BFF34F8F71
:1014B00000BFFDE700ED00E00400FA0508B50520D7
:1014C000FFF7E2FF08B50120FFF7DEFF08B50220B5
:1014D000FFF7DAFF08B50320FFF7D6FF08B50420B1
:1014E000FFF7D2FF704700BF08B500F02BFD04F0F6
:1014F000CDFE012800D108BDBDE8084003F05ABA6E
:101500000120704708B506F0D7F8162303604FF0A6
:10151000FF3008BD08B506F0CFF816230360FEE7DC
:1015200070B5161E07DD0C468D19AFF3008004F868
:10153000010BA542F9D1304670BD00BF70B5161E33
:1015400007DD0C468D1914F8010BAFF30080AC4297
:10155000F9D1304670BD00BF4FF0FF30704700BF7B
:101560004FF400534B600020704700BF01207047CC
:10157000002070470C490D4A0B6810B50C4C121B2B
:101580002BB11844904207D80860184610BD094B8B
:101590000B6018449042F7D906F08EF80C230360D4
:1015A0004FF0FF33184610BD540800200000012002
:1015B00000040000F8DE0020034AD2F8883043F42B
:1015C0007003C2F88830704700ED00E0DFF834D0D7
:1015D000FFF7F2FF0C480D490D4A002302E0D458F2
:1015E000C4500433C4188C42F9D30A4A0A4C00236D
:1015F00001E013600432A242FBD306F063F8FFF768
:1016000099FDFEE700000120000000200C070020EB
:1016100094E1000810070020F4DE0020FEE700003F
:1016200080B5012286B00221394800F0F5FD03F0B3
:1016300013F838490646384805F0BCFC05F070F848
:10164000002857D103AF05F0D7FC0024DFF8D09075
:10165000DFF8C080DFF8CCA025466436304603F0C2
:1016600059F805F0CDFC052D0AD0484605F0A2FC3E
:101670000135032CEDB204F101041DD0E4B2ECE716
:10168000FFF7A8FC41460246504605F093FCFFF7E1
:10169000A1FC07210246384605F016FD384605F044
:1016A000ADFC414602461D4805F084FC032C4FF07A
:1016B000000504F10104E1D100210122384605F0C2
:1016C00003FD384605F09AFCFFF7A2FC0221024612
:1016D000384605F0F9FC384605F090FCFFF7A8FC09
:1016E00002210246384605F0C3FC384605F086FC68
:1016F0000024B2E705F014F803AF0023024600937C
:101700003846194605F0C4FC384605F077FC9AE7E0
:101710000004004890D90008E8D8000818D900084B
:1017200048D90008F4D8000808B5044A0448002144
:1017300002F09AFF034B186008BD00BF6CD9000887
:1017400021160008580800202DE9F04383B002F06C
:1017500083FF4C49DFF83C81DFF8349104464A4866
:101760000F4605F027FC00F00BFA0546963420469C
:1017700002F0D0FF00F08EFBFFF760FC0026012096
:10178000002D52D0FFF7E8FB00EB40053D493F48F4
:101790002A4605F00FFC284600F09CF900F038FBC3
:1017A0000DF10600ADF8066000F078FB01285AD074
:1017B0003449374805F0FEFB3046ADF80660FFF7C8
:1017C00043FC00F079FB2F4EDFF8C080304F08E07B
:1017D00005F0F0FBADF806502846FFF735FC00F0A9
:1017E0006BFB9634204602F095FF00F053FBFFF7A9
:1017F00025FCFFF7B1FB00EB40052A463146404689
:1018000005F0D8FB284600F065F9002500F000FB44
:101810000DF10600ADF8065000F040FB01283146FE
:101820003846D5D1BDF80600D7E7FFF7C3FB3946E8
:10183000404605F0BFFB00F0A3F905460DF1060098
:10184000ADF8066000F02AFB0346012B39464846F6
:1018500010D005F0AFFB3046ADF80660FFF7F4FBA3
:1018600000F02AFB82E7BDF80600FFF7EDFB00F071
:1018700023FBA8E7BDF80600FFF7E6FB00F01CFB22
:1018800074E700BF30DA000898D90008B4D900081E
:10189000F0D90008D0D9000808B5044A044800214E
:1018A00002F0E2FE034B186008BD00BF0CDA00082E
:1018B000491700085C0800202DE9F04383B002F0CE
:1018C000CBFE1649164EDFF85480164F05461648D3
:1018D00005F070FB05F57A75284602F01BFFFFF74F
:1018E00071FB0446FFF75EFB8146FFF753FB84461E
:1018F0004B46224641463846CDF800C005F05AFB1B
:1019000032784FF480614FF0904000F085FC3378DE
:10191000B3FA83F35B093370DCE700BFB0DA000889
:101920006008002044DA000838DA000808B5044AE4
:101930000448002102F098FE034B186008BD00BF68
:101940008CDA0008B91800086408002008B5FFF711
:10195000EFFAFFF7A1FFFFF7E7FEBDE80840FFF74A
:10196000E5BF00BF70B586B016468DF80F1004466F
:1019700088B3012804D124480022202100F04CFC27
:10198000322300932148012305AA0DF10F0101F034
:1019900081FE054620B996B99DF8140006B070BDC9
:1019A0000120FFF707FB022D29D0032D22D0012DA6
:1019B000F1D11748214605F0FDFA002EECD084B194
:1019C000012CE9D110482246202100F025FC9DF889
:1019D000140006B070BD0C482246102100F01CFC1B
:1019E000CEE709480122102100F016FC9DF81400F2
:1019F00006B070BD0748214605F0DCFACBE7064883
:101A0000214605F0D7FAC6E700040048CC070020BD
:101A1000B8DA0008D8DA0008C8DA000870B584B06F
:101A200016468DF80F10044688B3012804D12448C7
:101A30000022202100F0F0FB3223009321480123F3
:101A400003AA0DF10F0101F025FE054620B996B954
:101A50009DF80C0004B070BD0120FFF7ABFA022D19
:101A600029D0032D22D0012DF1D11748214605F0B0
:101A7000A1FA002EECD084B1012CE9D11048224605
:101A8000202100F0C9FB9DF80C0004B070BD0C488B
:101A90002246102100F0C0FBCEE7094801221021A8
:101AA00000F0BAFB9DF80C0004B070BD0748214659
:101AB00005F080FACBE70648214605F07BFAC6E739
:101AC00000040048CC070020B8DA0008D8DA000883
:101AD000C8DA000810B5044630B9014602F076FCB9
:101AE000054B00201C6010BD0221002002F06EFC9E
:101AF000014B00201C6010BD6808002010B5FFF7E6
:101B000043FA00280CBF6FF00404052420210020B4
:101B10003C2202F0C1FB22462121002002F0BCFB46
:101B20004FF4FA722421002002F0B6FB0222522167
:101B3000002002F0B1FB0821002002F047FC4FF426
:101B4000FA6002F0D9FD0021084602F03FFC0022B5
:101B50002321104602F0C0FB012204462A21002066
:101B600002F0BAFB231A9BB201222921002002F0C5
:101B7000DFFB00200322522102F08EFB012010BD6A
:101B8000F8B501224FF480614FF0904000F044FB23
:101B90008D488E4F8E4E0122102100F03DFB012218
:101BA0002021894800F038FB0020FFF703FA0120CC
:101BB000FFF736FA00221046632102F06DFB012286
:101BC0001146814800F028FB012211464FF0904059
:101BD00000F022FBC82000F0C7F9012108460822C6
:101BE00002F0EEFC7B4805F0E5F9642000F0BCF95A
:101BF0003A461B21002002F04FFB40F69F7218214D
:101C0000002002F049FB00221046172102F044FB9D
:101C100041F619121921002002F03EFB07221A2179
:101C2000002002F039FB6C4A0A21002002F034FB4C
:101C30004FF010120421002002F02EFB4FF0005252
:101C40000521002002F028FB00221046062102F0A8
:101C500023FB624A0721002002F01EFB604A092193
:101C6000002002F019FB5F4A0821002002F014FB5B
:101C700000221046252102F00FFB4FF4346226218A
:101C8000002002F009FB01223321002002F004FBB6
:101C9000554A3721002002F0FFFA05225221002088
:101CA00002F0FAFA09225021002002F0F5FA02228D
:101CB0006321002002F0F0FA46F2A8124FF480717E
:101CC000002002F0EFFB46F660525D21002002F09A
:101CD000E3FA40F6B8326021002002F0DDFA4FF45A
:101CE00096725F21002002F0D7FA404A5621002068
:101CF00002F0D2FA3D4A5421002002F0CDFA3C4ACB
:101D00005821002002F0C8FA00221046662102F095
:101D1000C3FA00221046642102F0BEFA00221046E7
:101D2000672102F0B9FA00221146012002F048FCB6
:101D300032460921012002F043FC4FF004120A212F
:101D4000012002F03DFC1B21002002F081FA092154
:101D50000546012002F010FC29460446254805F0FE
:101D600029F92448214605F025F9B44212D1224828
:101D700005F020F9BD4213D1204805F01BF9FFF70B
:101D8000BDFE012804460FD01D48002405F012F9BD
:101D90002046F8BD1B4805F00DF900242046F8BD8B
:101DA000194805F007F9F8E7184805F003F900208D
:101DB000FFF736F900224FF480614FF0904000F0B9
:101DC0002BFA2046F8BD00BF0004004804000300C1
:101DD00006060113ECDA0008000100244E014E0152
:101DE000C9810001AE810001000078EC1E004100B5
:101DF0000001606D08DB000814DB000870DB0008E0
:101E0000D4DB000844DB0008A4DB0008ECDB00089E
:101E100070B566211C4805F0CDF8002002F088FB63
:101E20000446FFF7B1F8194B1E68337C012808BF40
:101E30006442012B03F1FF3C23D9F068002302E048
:101E4000CBB2634505DA50F83320A24203F1010119
:101E5000F6DB0F4A1568A54207DDF16801EBC30305
:101E60002A1B99888A42C8BF0D19FFF78DF80128EF
:101E700008BF6D4200202A46662102F00DFA0020BC
:101E800070BD0023E5E700BF00DC0008040000206F
:101E900068080020002002F04BBB00BF10B54FF4D3
:101EA00080710446002002F0D3FA0028B8BF4042F7
:101EB0002080012010BD00BF012108B5084602F0B6
:101EC0005BFB012800D808BD0146BDE80840014879
:101ED00005F070B81CDC000838B50F4B1B780BB947
:101EE000012038BD0D494FF47A720546B2FBF3F379
:101EF0000868B0FBF3F000F097F804460028EFD133
:101F00000F2DEDD8024629464FF0FF3000F050F873
:101F1000034B20461D6038BD4C000020000000200F
:101F20005000002010B5032000F030F80F20FFF71C
:101F3000D3FF10B10124204610BD0446FFF7D4F9A9
:101F4000204610BD034A044B11681B780B441360F4
:101F5000704700BF6C0800204C000020014B18683F
:101F6000704700BF6C08002038B50446FFF7F6FF45
:101F7000631C054602D0044B1B781C44FFF7EEFFA0
:101F8000401BA042FAD338BD4C0000200749CA6864
:101F900003024FF6FF0003F4E0630240134343F0F3
:101FA000BF6343F40033CB60704700BF00ED00E037
:101FB0001B4BDB68C3F3022300B5C3F1070EBEF170
:101FC000040F03F1040C28BF4FF0040EBCF1060F00
:101FD0001CD9A3F1030C4FF0FF3303FA0CF322EAF0
:101FE00003024FF0FF3303FA0EF321EA030303FA6F
:101FF0000CF313431B010028DBB20ADB00F1604045
:1020000000F5614080F800335DF804FB002294463F
:10201000E7E7044A00F00F00024413765DF804FB82
:1020200000ED00E0FCEC00E00138B0F1807F01D36E
:102030000120704710B44FF0E023074C58614FF077
:10204000F00C84F823C00022072110469A615DF845
:10205000044B1961704700BF00ED00E02DE9F04F1F
:102060000C6885B0002C00F0B88000234FF0010B05
:1020700061E0032A40F0B48002FA0CF2D0F800C00C
:102080000CEA07073A4315F4403F02604FD05E4F19
:102090003A6E42F001023A663A6E02F00102039291
:1020A000039A23F0030202F1804202F5803203F02A
:1020B000030C97684FEA8C0C0F2606FA0CFEB0F161
:1020C000904F27EA0E070ED0504EB04200F0948099
:1020D0004F4EB0420CBF4FF0020E4FF0070E0EFAFB
:1020E0000CFC47EA0C0797604A4A9268EE026FEAD6
:1020F0000A07484E54BF3A404AEA0202B260F26808
:10210000AE02444E54BF3A404AEA0202F26072689C
:10211000AE03404E54BF3A404AEA0202726032684F
:10212000ED033C4D54BF3A404AEA02022A600133B3
:1021300034FA03F251D00BFA03FE1EEA040AF6D079
:102140004D6805F003024FEA430C032602F1FF3805
:1021500006FA0CF7B8F1010F6FEA070789D8D0F833
:102160000890CE6809EA070906FA0CF848EA090857
:10217000C0F80880D0F804808E6828EA0E08C5F3FD
:10218000001E0EFA03FE4EEA080EC0F804E0D0F876
:102190000C8006FA0CFE08EA07084EEA080E022A2E
:1021A000C0F80CE07FF468AF0E694FEAD30803F083
:1021B000070E00EB88084FEA8E0E06FA0EF6D8F8E6
:1021C000209001960F2606FA0EFE019E29EA0E09BE
:1021D00046EA090EC8F820E04EE705B0BDE8F08FEA
:1021E000D0F80C808E6807EA080806FA0CFE4EEA62
:1021F000080EC0F80CE03FE74FF0010E0EFA0CFCA1
:1022000047EA0C076FE700BF0010024000040048D7
:1022100000080048000401400AB1816170478162F2
:10222000704700BF436901EA030221EA030141EA62
:1022300002418161704700BF024A136843F4807312
:102240001360704700700040024A136823F48073E3
:102250001360704700700040024B186800F4C060C3
:10226000704700BF00700040B0F5007F0ED01B4AE1
:10227000136803F4C063B3F5806F05D0136823F4CB
:10228000C06343F4806313600020704713490B68F8
:1022900003F4C063B3F5007FF6D00B68104A23F453
:1022A000C06343F400730B6013680E4A322000FBD6
:1022B00003F34869A2FB03239B0C400503F10103D0
:1022C00006D500E023B14A69520503F1FF33F9D482
:1022D000024B5B695B05D7D5032070470070004057
:1022E0000000002083DE1B4330B5204DAB6DDB00CA
:1022F00083B004461AD5FFF7AFFFB0F5007F27D0B3
:10230000802C2CD82FD0A4F17004B4FA84F4640982
:1023100017490B6823F0070323430B60086800F09C
:102320000700001B18BF012003B030BDAB6D43F0A8
:102330008053AB65AB6D03F080530193019BFFF7B6
:102340008BFFAB6DB0F5007F23F08053AB65D7D129
:10235000802C06D9A12C34BF01240224D8E7032401
:10236000D6E70024D4E70224D2E700BF00100240E1
:1023700000200240284A9368D26813F00C0305D06D
:102380000C2B35D0042B41D124487047224A1168C8
:10239000090754BFD2F894201268214954BFC2F3F0
:1023A0000322C2F3031251F8220003B30C2B1DD1F8
:1023B000194BDB6803F00303022B25D0194A032BCA
:1023C00008BF1046144BD968DA68DB68C3F3416371
:1023D000C2F30622C1F30211013300FB02F2013104
:1023E0005B00B2FBF1F2B2FBF3F0704700207047E4
:1023F00002F00302012AC9D0074BDB6803F0030394
:10240000022B4FF00000D9D10448DBE7082B054828
:1024100018BF0020704700BF001002400024F400E5
:10242000A0D8000800127A00002800F000832DE9EF
:10243000F043944A03689568D6680446D80683B08A
:1024400005F00C0506F003062ED5002D00F02381C3
:102450000C2D00F01D81A3698A4F002B00F09281A2
:102460003B6843F001033B60FFF778FD804606E0E0
:10247000FFF774FDA0EB0800022800F293813B688F
:102480009B07F5D53B6843F008033B603B68226A35
:1024900023F0F00313433B607B68E26923F47F433E
:1024A00043EA02237B602368D90700F1C1809907C2
:1024B00023D5042D00F056810C2D00F05081E368E7
:1024C000704E002B00F08981336843F480733360D1
:1024D000FFF744FD074605E0FFF740FDC01B02285B
:1024E00000F2608133685B05F6D57368226923F0DA
:1024F000F85343EA026373602368190719D56369C7
:10250000604E002B00F01781D6F8943043F00103A1
:10251000C6F89430FFF722FD074605E0FFF71EFDE1
:10252000C01B022800F23E81D6F894309A07F5D5F8
:1025300023685F073FD5534B9A6DD60000F14B815E
:102540009A6D42F080529A659B6D03F0805301931F
:10255000019B01264C4F3B68D80540F19881A36848
:10256000012B00F04C81052B00F0BC81454FD7F8C2
:10257000902022F00102C7F89020D7F8902022F096
:102580000402C7F89020002B40F04081FFF7E6FCE2
:1025900041F28839804606E0FFF7E0FCA0EB080036
:1025A000484500F2FF80D7F890309B07F4D4002E06
:1025B00040F07F812368980618D5636A314E002B5E
:1025C00000F05181D6F8983043F00103C6F89830F6
:1025D000FFF7C4FC074605E0FFF7C0FCC01B02285C
:1025E00000F2E080D6F898309907F5D5A36ADBB100
:1025F000022B00F085810C2D00F08F80214C236888
:1026000023F080732360FFF7A9FC054605E0FFF780
:10261000A5FC401B022800F2C58023689B01F6D46C
:10262000E2681A4B1340E360002003B0BDE8F0837A
:10263000082D76D00C2D72D06368B3F5803F00F082
:10264000B580B3F5A02F00F040810E4F3A6822F418
:1026500080323A603A6822F480223A60002B40F0DF
:10266000AA80FFF77BFC804606E0FFF777FCA0EB33
:102670000800642800F296803B689803F5D423682C
:1026800015E700BF0010024000700040FCFFEEFEA6
:10269000012E7FF4E0AEA64B1B6899073AD4A44BF9
:1026A000206A1A68120756BFD3F894301B681B09BA
:1026B00003F0F003984200F2BE809D4B1A6842F08E
:1026C00008021A601A6822F0F00202431A605A687F
:1026D000E16922F47F4242EA01225A60002D00F0B3
:1026E000EE80FFF747FE924B924A9B68C3F30313B9
:1026F000D35C914A03F01F0320FA03F310688F4A5A
:102700001360FFF7E9FB00288FD12368D9077FF515
:10271000CEAE8DE7A369002BC1D1012085E7032E42
:102720008AD1834A126892037FF5C1AE6268002A9B
:102730007FF4BDAEF1E7D6F8943023F00103C6F87C
:102740009430FFF70BFC074604E0FFF707FCC01BC3
:10275000022827D8D6F894309B07F6D4E8E6022E54
:102760007FF4ADAE724A1268520502D5E268002AC3
:10277000D3D06F4920694A6822F0F85242EA0062D9
:102780004A60BAE63B6823F001033B60FFF7E6FBD3
:1027900080463B689807B8D5FFF7E0FBA0EB080040
:1027A0000228F6D9032003B0BDE8F083604A13681D
:1027B00043F480331360FFF7D1FBDFF874810746E1
:1027C00004E0FFF7CBFBC01B6428EBD8D8F800303F
:1027D0009B03F6D553E70026BCE6336823F48073E9
:1027E0003360FFF7BBFB074604E0FFF7B7FBC01BF6
:1027F0000228D7D833685805F7D423687DE64C4AB9
:10280000D2F8903043F00103C2F89030FFF7A6FBF6
:10281000DFF81C81074641F2883904E0FFF79EFB90
:10282000C01B4845BED8D8F890309A07F6D5002E80
:102830003FF4C0AE3DE0FFF757FD00287FF46DAFD9
:102840003B4B1A6842F008021A601A68216A22F0AB
:10285000F0020A431A605A68E16922F47F4242EAB0
:1028600001225A603DE7D6F8983023F00103C6F8FC
:102870009830FFF773FB074604E0FFF76FFBC01BC0
:1028800002288FD8D6F898309A07F6D4AEE63B687F
:1028900043F480733B60FFF761FB80463B68D905DA
:1028A0003FF55DAEFFF75AFBA0EB08000228F5D913
:1028B00078E71F4A936D23F0805393657AE6FFF71C
:1028C00013FD00283FF40DAF27E703F18043A3F584
:1028D0003C331A6842F480221A601A6842F480324B
:1028E0001A6068E7124BD3F8902042F00402C3F854
:1028F0009020D3F8902042F00102C3F8902085E7A1
:102900000B4EE26AF36803F00301914252D00C2DA2
:102910003FF403AF064D2B685B013FF5FEAE2B681D
:1029200023F080732B60FFF719FB06460EE000BF13
:1029300000100240D8D800085000002000000020FD
:10294000FFF70CFB801B02283FF62CAF2B689F0182
:10295000F6D4E968374BE26A206B374E0B401343DD
:10296000D4E90D1243EA012343EAC263D4E90F120A
:102970000138490843EA00130139520843EA415338
:10298000013A43EA4263EB602B6843F080732B60AB
:10299000EB6843F08073EB60FFF7E0FA044605E074
:1029A000FFF7DCFA001B02283FF6FCAE3368980103
:1029B000F6D539E6216B03F070020139B2EB011F45
:1029C000A5D1616B03F4FE42B2EB012F9FD1A16B45
:1029D00003F07842B2EBC16F99D1E26B520803F475
:1029E000C001013AB1EB425F91D1226C520803F071
:1029F000C063013AB3EB426F89D1336899013FF567
:102A000013AE336843F080733360F36843F0807330
:102A1000F360FFF7A3FA044605E0FFF79FFA031BF4
:102A2000022B3FF6BFAE33689A01F6D5FCE50120D4
:102A3000704700BF8C809D0100100240002800F00C
:102A4000A080544A136803F007038B422DE9F0413C
:102A50000D4604460CD2136823F007030B431360A2
:102A6000136803F007038B4202D00120BDE8F08118
:102A70002368990703F0010270D5474EA068B1683A
:102A800001F0F001884204D9B16821F0F00101435E
:102A9000B16032B36268404B032A1B6865D0022ADA
:102AA0006CD0002A71D19E07DFD53B4EB36823F06E
:102AB00003031343B360FFF751FA41F28838074626
:102AC00004E0FFF74BFAC01B40455CD8B36862686E
:102AD00003F00C03B3EB820FF3D12368990706D5FB
:102AE000A0682D498A6802F0F002824240D8294944
:102AF0000A6802F00702AA4209D90A6822F007020E
:102B00002A430A600A6802F00702AA42ADD15A07B6
:102B100006D52149E0688A6822F4E06202438A60AF
:102B20001B0707D51C4A2169936823F4605343EAC5
:102B3000C1039360FFF71EFC174A184C92681849AE
:102B4000C2F303120346A25C164802F01F02D340F0
:102B5000BDE8F04100680B60FFF7BEB9002AC6D09F
:102B600062680D4B032A1B6899D19B019DD47CE7B9
:102B70008A6822F0F00202438A60B8E79F0394D487
:102B800073E701207047032070E758057FF56DAFAC
:102B90008BE700BF0020024000100240D8D8000898
:102BA0000000002050000020054B064A9B680649A3
:102BB000C3F302230868D35C03F01F03D8407047B7
:102BC00000100240D0D8000800000020054B064A43
:102BD0009B680649C3F3C2230868D35C03F01F0354
:102BE000D840704700100240D0D8000800000020F4
:102BF000454AF8B5D6680D46B1070446006806D0C8
:102C0000D16801F0030181424BD00120F8BD0228B8
:102C100058D003284FD00128F7D112689307F5D573
:102C20003949CA6822F0730242EA00036268013A35
:102C300043EA0213CB60344E336823F08063336081
:102C4000FFF78CF9074604E0FFF788F9C31B022B56
:102C50003CD833681A01F7D4A3681902002D37D184
:102C60003269E36822F0784241EAC36322F4FE420B
:102C700013433361244D2B6843F080632B60FFF7CF
:102C80006DF9064604E0FFF769F9801B02281DD89C
:102C90002B681B01F7D52B69A269134300202B6118
:102CA000F8BD0029B1D0D3686268C3F302130133C1
:102CB0009342AAD1BFE711688E03B1D412685103C1
:102CC000A3D5ADE7126857059FD5A9E70320F8BD46
:102CD000012D33690BD0626923F0C063520823F4DD
:102CE000FE43013A0B4343EA42633361C2E7226980
:102CF00023F4C003520823F4FE43013A0B4343EA92
:102D000042533361B6E700BF001002402DE9F043A3
:102D1000036813F4006683B004460CD0C16BB1F5B0
:102D2000000F00F0F680B1F5400F00F0F7800029A9
:102D300000F0138101269F0354D59A4B9A6DD5005C
:102D400040F1DC800027984D2B6843F480732B60A2
:102D5000FFF704F9804606E0FFF700F9A0EB08034F
:102D6000022B00F2E5802B68D805F5D5B6BB8D4D5A
:102D7000226DD5F8903013F4407327D0934225D0BC
:102D8000D5F89010D5F8903043F48033C5F89030E2
:102D9000D5F8903023F48033C5F8903021F4407397
:102DA000C907C5F8903011D5FFF7D8F841F2883936
:102DB000804606E0FFF7D2F8A0EB0800484500F295
:102DC000B780D5F890309B07F4D5226D7549D1F8BE
:102DD000903023F440731343C1F890302368002FE0
:102DE00040F0AB80DF0708D56E49206AD1F8882013
:102DF00022F003020243C1F888209D0708D56949E3
:102E0000606AD1F8882022F00C020243C1F88820C1
:102E1000980608D56349A06AD1F8882022F4406258
:102E20000243C1F88820990508D55E49606BD1F846
:102E3000882022F440220243C1F888205A0508D590
:102E40005849A06BD1F8882022F440120243C1F8FF
:102E500088205F0608D55349E06AD1F8882022F41B
:102E600040520243C1F88820DD0508D54D49206B4A
:102E7000D1F8882022F440320243C1F88820980417
:102E80000ED54849206CD1F8882022F040620243D8
:102E9000B0F1006FC1F8882055D0B0F1806F6CD0D0
:102EA00059030ED53F49606CD1F8882022F040626A
:102EB0000243B0F1006FC1F8882049D0B0F1806FB3
:102EC00064D05A040BD53748A16CD0F8882022F082
:102ED00040520A43B1F1805FC0F8882044D01B04FF
:102EE00008D5304AE16CD2F8883023F080430B4398
:102EF000C2F88830304603B0BDE8F0839A6D42F0E6
:102F000080529A659B6D03F080530193019B0127CA
:102F100019E72448C26842F48032C2602148D0F8E0
:102F2000882022F440020A43C0F88820002602E7E5
:102F300023680326002F3FF455AF1A498A6D22F00B
:102F400080528A654EE7CA6842F48012CA60A7E7D9
:102F5000CA6842F48012CA60B3E70430FFF748FE43
:102F60000646E0B12368E6E60221201DFFF740FE99
:102F700023680028B3D00646B1E70121201DFFF7E2
:102F800037FE236800288BD0064689E70121201DE3
:102F9000FFF72EFE2368002893D0064691E7E16BE9
:102FA0002368BBE7001002400070004038B5214B99
:102FB000DA6822F08002DA609968026889060446BD
:102FC00013D4D36823F0A003D360FEF7C7FF0546F0
:102FD00005E0FEF7C3FF431BB3F57A7F26D82368CD
:102FE000DB689A06F5D5002038BD996821F02001EC
:102FF0009960D36823F0A003D360FEF7AFFF0546C6
:1030000005E0FEF7ABFF431BB3F57A7F0AD82368D0
:10301000DB689B06F5D50020064A936843F0200341
:10302000936038BD032084F82100F5E7032084F87D
:10303000210038BD0028004000285FD070B590F80E
:103040002130054603F0FF02002B52D02A680220EF
:10305000CA21532385F8210051625362D46814F0C9
:10306000400429D091686B682C6921F4E00121F0BB
:1030700040019160A969906823430B430343E968C9
:10308000936011611369A96843EA014328461361FB
:10309000FFF78CFF78B92B68EA69D96C6C6921F06D
:1030A0000301D964D96C22430A43FF21DA645962CF
:1030B000012385F8213070BD4FF0FF33D360FEF758
:1030C0004DFF064620460BE00328F4D0FEF746FFEE
:1030D000831BB3F57A7F204684BF032085F8210047
:1030E0002A68D46814F04004EED00028BAD0032037
:1030F00070BD80F82020FEF717F9A7E70120704780
:10310000036882B050330193019B03EB8103019369
:10311000019B1A6002B070470368503353F82100D6
:10312000704700BF2DE9F04182B000230E461746DC
:103130008DF803300546FEF711FF37443F1AFEF7BE
:103140000DFF324B2C681B6803EB8303C3EBC303F7
:103150001B0D07FB03F30136019311D1A36813F490
:10316000C06F09D0237BDBB28DF803309DF80330AC
:10317000A36813F4C06FF5D1002002B0BDE8F08160
:103180008046234613E0237BDBB28DF803309DF8A5
:103190000330FEF7E3FEA0EB0800B8420CD2019A20
:1031A000019B013B002A01932B6808BF00279B6805
:1031B00013F4C06FE7D1DFE7D5E900315A68B1F504
:1031C000827F22F0E0025A6013D0AA6AB2F5005F53
:1031D00007D11A6822F400521A601A6842F40052A9
:1031E0001A600122002385F85D2085F85C300320F9
:1031F000C3E7AA68B2F5004F02D0B2F5806FE4D100
:103200001A6822F040021A60DFE700BF00000020C9
:103210002DE9F04F85B000230E468DF8073001EB05
:10322000020917460546FEF799FEDFF82481A9EB4F
:10323000000AFEF793FED8F800302C6803EB8303F6
:10324000C3EBC3031B0D0AFB03F30293731C18BFEC
:10325000834630D1A36813F4C05FFBD1FEF77EFE36
:10326000A9EB0009FEF77AFED8F800302C68C3F30A
:10327000CB3309FB03F3711C8046039330D1A36861
:103280001A06FCD43A4631462846FFF74BFF58BB96
:1032900005B0BDE8F08FFEF761FEA0EB0B008245A4
:1032A0002AD9029A029B2C68002A03F1FF3308BF37
:1032B0004FF0000A0293A36813F4C05FEBD1CDE78F
:1032C000FEF74CFEA0EB0800814515D9039A039B3D
:1032D0002C68002A03F1FF3308BF4FF00009039365
:1032E000A3681B06ECD4CDE72B6E43F020032B66BE
:1032F000032005B0BDE8F08FD5E900315A68B1F57B
:10330000827F22F0E0025A6016D0AA6AB2F5005F0E
:1033100007D11A6822F400521A601A6842F4005267
:103320001A60012385F85D302B6E002243F02003E4
:1033300085F85C202B66DBE7AA68B2F5004F02D067
:10334000B2F5806FE1D11A6822F040021A60DCE722
:1033500000000020002874D02DE9F0410446406AA6
:10336000002853D000232361636194F85D3000226C
:10337000A26203F0FF02002B57D02168E768022306
:1033800084F85D300B68B7F5E06F23F040030B6005
:1033900042D851D1A56A4FF4805C05F400556268AB
:1033A000A368A66903F4044302F482721A432369F2
:1033B00003F002031343626902F001021A43636BD4
:1033C00007F4706703F0080343EA070EE36903F0AC
:1033D0003808236A03F0800706F40073134343EAB6
:1033E00008033B43360C2B4306F004060B6000F049
:1033F00010004EEA0603034343EA0C034B6000202F
:103400000123206684F85D30BDE8F0816368B3F580
:10341000827FAAD0E061A8E7B7F5706F13D1A56AE3
:103420004FF0000C05F40055B9E7204684F85C2005
:10343000FDF7A2FF606AA0E74FF4805C0025A5625B
:10344000ADE7012070474FF0000CF7E72DE9F041A0
:10345000044690F85C00012882B075D01D46012317
:1034600084F85C3088461746FEF778FD94F85D30A6
:10347000012B0646D8B209D002200122002384F88D
:103480005D2084F85C3002B0BDE8F081B8F1000F37
:10349000F3D0002FF1D0A1682368C4F8388000224F
:1034A0000320B1F5004F84F85D00A78722662264EF
:1034B000E787A4F84420E2642265A4F84620184671
:1034C0006AD01A68520603D41A6842F040021A60A1
:1034D000E2686168B2F5E06F3AD9002900F099809E
:1034E000012F00F09680E28F92B2BAB16A1C40F0D0
:1034F00087809A68970740F1A480A26B32F8021B7C
:10350000D960B4F83EC0A2630CF1FF3C1FFA8CFCFA
:10351000A4F83EC0E28F92B2002AEAD13246294690
:103520002046FFF775FE08B120232366A36833B950
:1035300022680193D368019393680193019B206EE5
:10354000003818BF012098E7022002B0BDE8F081E2
:10355000002968D0012F66D0E38F9BB2002BDDD00D
:10356000681C12D033E0E38FA06B9BB2012B0146A5
:1035700070D931F8023BD360E38FA163023B9BB269
:10358000E387E18F89B20029C8D022689368990740
:10359000E9D4FEF7E3FCF4E71A6822F040021A606F
:1035A0001A6842F480421A608BE7E28FA06B92B2F5
:1035B000012A014663D931F8022BDA60E38FA16357
:1035C000023B9BB2E387E38F9BB2002BA6D023681C
:1035D0009A689207E9D4FEF7C1FC831BAB42F2D391
:1035E00003204AE7A26B32F8023BC360E38FA26379
:1035F000013B9BB2E387E38F9BB2002B8ED0206808
:1036000083689907EED4FEF7A9FC831BAB42F2D383
:10361000E6E7414631F8022BDA60E28FA163013A16
:1036200092B2E2875FE7E28F92B2012A1CD941464B
:1036300031F8022BDA60E38FA163023B9BB2E38790
:103640008AE7FEF78BFCE38F9BB2002B3FF466AF5B
:1036500023684EE703781373E38FA26B013B0132BB
:103660009BB2A263E3878CE798F800201A73E38F7C
:10367000A26B013B01329BB2A263E3876CE7027845
:103680001A73E38FA26B013B01329BB2A263E38703
:1036900099E700BF2DE9F843044690F85C00089EC6
:1036A000012800F09E801F46012384F85C30894683
:1036B0009046FEF753FC054694F85D0063680128C8
:1036C000C1B210D0B3F5827F08D0022001220023BE
:1036D00084F85D2084F85C30BDE8F883A268002A95
:1036E000F3D10429F1D1B9F1000F00F0D480B8F181
:1036F000000F00F0D080002F00F0CD8094F85D2006
:10370000E168C4F84080042A1CBF052284F85D20CB
:103710000022B1F5E06F2266E2642265A4F84670EB
:103720002268A4F84470C4F83890A787E7875BD86C
:10373000012F00F02481516821F4805151601168FB
:10374000490603D4116841F0400111606BB9E38F61
:103750009BB2012B40F2FD80494631F8023BD36019
:10376000E38FA163023B9BB2E3870127E38F9BB208
:103770002BB9B4F846309BB2002B00F08280216850
:103780008B689A0706D5E38F9BB21BB1002F40F0E0
:10379000958000278B6813F0010319D0B4F84620F8
:1037A00092B2AAB1B4F84600226C80B2012879D94D
:1037B000C86822F8020B2264B4F84620023A92B29A
:1037C000A4F84620B4F8462092B2012A65D91F46D3
:1037D000FEF7C4FB401BB042C8D3731CC6D0032005
:1037E00074E70220BDE8F883516821F480515160EC
:1037F0001168480603D4116841F040011160002BA4
:1038000040F08280494631F8023BD360E38FA163E8
:10381000013B9BB2E387731C4FF0010728D06EE099
:103820002268936898070DD5E38F9BB253B147B1D7
:10383000A36B33F8021BD160A363E38F013B9BB200
:10384000E3870027936813F001030FD0B4F8461004
:1038500089B259B11F46236CD26823F8022B236426
:10386000B4F84630013B9BB2A4F84630FEF776FB35
:10387000E38F9BB2002BD3D1B4F846309BB2002B20
:10388000CED12A4631462046FFF7C2FC00283FF43D
:103890001DAF20232366012018E74A6842F48052B6
:1038A0004A6094E7097B1170226C01322264B4F8FB
:1038B0004620013A92B2A4F8462088E7E28FA36B33
:1038C00092B2012A50D933F8022BCA60A363E38F66
:1038D000023B9BB2E3875CE7B4F846309BB2002B17
:1038E000CFD022689368990723D4936813F001031B
:1038F0000DD1FEF733FB401BB042BFF470AFE38F36
:103900009BB2002BEDD1E7E7012F84D17AE7B4F821
:10391000461089B20029ECD01F46236CD26823F8E8
:10392000022B2364B4F84630013B9BB2A4F8463026
:10393000DFE7E38F9BB2002BD7D047B1A36B33F8FF
:10394000021BD160A363E38F013B9BB2E387002797
:10395000CBE799F800301373E38FA26B013B013280
:103960009BB2A263E38700E71B780B73E38FA26B24
:103970002168013B01329BB2A263E38709E75368E8
:1039800043F480535360136859063FF5E0AE136863
:1039900043F040031360DAE62DE9F0411D46436829
:1039A000B3F5827F84B004461746884600F09080C5
:1039B00094F85C30012B00F09880012384F85C308F
:1039C000FEF7CCFA94F85D30012B0646D8B209D048
:1039D00002200122002384F85D2084F85C3004B0CA
:1039E000BDE8F081B8F1000FF3D0002FF1D0E2680C
:1039F0002168C4F840800023042084F85D00B2F5FB
:103A0000E06F2366A4F84670E387A363A387E364AB
:103A100023654868A4F844700B4640F2DC8020F42B
:103A200080504860A068B0F5004F00F0E080086862
:103A300040065ED4086840F040000860B2F5E06FD0
:103A400057D8B4F8462092B2FAB1681C13D0B8E047
:103A5000226C1B7B1370B4F846C0226C0CF1FF3C47
:103A60001FFA8CFCA4F846C0B4F8463001329BB271
:103A7000226453B123689A68D107E9D4FEF76EFA3D
:103A8000B4F846309BB2002BF4D16368B3F5827F63
:103A900000F0BA80FEF762FAAF193F1AFEF75EFA3D
:103AA000804B22681B68C3F3CB33804607FB03F3CC
:103AB000681C03936ED193681906FCD46368B3F550
:103AC000827F00F0AF80206E003818BF012080E7B1
:103AD0008368002B7FF46CAF00950425134680F8B3
:103AE0005D500A46FFF7D6FD79E7022004B0BDE835
:103AF000F081B4F8462092B2002AC6D06A1C31D1B7
:103B00008B68DF0714D5236CCA6823F8022BB4F83E
:103B100046C023640CF1FF3C1FFA8CFCA4F846C09D
:103B2000B4F846309BB2002BAFD08B68DF07EAD4E5
:103B3000FEF714FAB4F846309BB2002BA5D02168EA
:103B4000DEE7226CDB6822F8023BB4F846302264E0
:103B5000013B9BB2A4F84630B4F846309BB2002B30
:103B600093D023689A68D707EBD4FEF7F7F9831B45
:103B7000AB422ED2F0E7FEF7F1F9A0EB0800B84215
:103B800067D2039A039B002A03F1FF332268039351
:103B900008BF002793681B06EDD48FE7226C1B7BC0
:103BA0001370B4F84630226C013B01329BB22264A0
:103BB000A4F84630B4F846309BB2002B3FF465AF12
:103BC00023689A68D207E9D4FEF7C8F9831BAB4291
:103BD000F0D30320FDE640F480504860A068B0F5C3
:103BE000004F04D0086847067FF524AF29E708682E
:103BF00020F040000860086820F4804008600868F1
:103C000040063FF51BAF15E7A368B3F5004F03D09F
:103C1000B3F5806F7FF43EAF2268136823F0400352
:103C2000136037E7A368B3F5004F03D0B3F5806F97
:103C30007FF449AF324629462046FFF773FA002841
:103C40003FF441AF236E43F0200323662023236615
:103C500039E7D4E900315A68B1F5827F22F0E002F9
:103C60005A6013D0A26AB2F5005F07D11A6822F435
:103C700000521A601A6842F400521A60012384F854
:103C80005D30236E43F020032366DFE7A268B2F5C0
:103C9000004F02D0B2F5806FE4D11A6822F04002E2
:103CA0001A60DFE70000002090F85D00704700BF59
:103CB00038B5044602688368006961691568034382
:103CC0000B43E0696349034329400B431360536886
:103CD000E16823F440530B435F4953608A42A36970
:103CE000916830D0256A21F430612B430B435B4946
:103CF00093608A4213D15A4BD3F8883003F0030300
:103D0000022B65D0032B50D0012B48D0B0F5004FCB
:103D10007CD0FEF75BFF00284CD1002036E0514BF1
:103D20009A4232D103F5E633D3F8883003F00C031E
:103D30000C2B2AD8DFE803F0642929293329292903
:103D40004C292929390021F430610B434448936000
:103D5000D0F8883003F44063B3F5006F3DD007D846
:103D6000C3B1B3F5806F10D1FEF704FB28B9D4E7D7
:103D7000B3F5406F09D14FF40040626802EB420393
:103D8000834202D8B0EB023F29D9012000236366A9
:103D9000A36638BDFEF708FF0028EED1BDE7B0F5F9
:103DA000004F4CD0FEF7E6FAB5E7B0F5004F4ED025
:103DB0004FF4004063684FF6EF7200EB5300B0FB26
:103DC000F3F0A0F110039342DFD82368D860A4E792
:103DD000B0F5004F39D02448ECE72348CDE751082F
:103DE00000238C464FF480751946E0FB05C1604600
:103DF000FCF7E6F91D4BA0F540729A42C5D8E4E7FE
:103E0000B0F5004F1ED0FEF7CFFE84E7FEF7DEFED2
:103E1000002882D0430062684FF6EF7103EB520333
:103E2000B3FBF2F3A3F110028A42AED823F00F02E3
:103E3000216892B2C3F342031343CB606DE7FEF7F0
:103E400099FAE5E7FEF7B0FEE2E7094BE3E74FF446
:103E50008033E0E7F369FFEF008000400038014065
:103E600000100240004400400024F400FFFC0F005A
:103E70000048E801436ADA0710B406D50168846A8D
:103E80004A6822F4003222434A609C0706D5016842
:103E9000C46A4A6822F4803222434A60590706D530
:103EA0000168046B4A6822F4802222434A601A07A0
:103EB00006D50168446B4A6822F4004222434A60F6
:103EC000DC0606D50168846B8A6822F4805222439E
:103ED0008A60990606D50168C46B8A6822F400528C
:103EE00022438A605A0609D50168046C4A6822F4A4
:103EF00080122243B4F5801F4A600BD01B0606D502
:103F00000268816C536823F400230B4353605DF80F
:103F1000044B70474A68446C22F4C00222434A6052
:103F2000ECE700BF2DE9F843DDF820800468B8F124
:103F3000FF3F0D4616460AD1E36935EA03030CBF7D
:103F4000012300239E42F7D00020BDE8F8830746F6
:103F50009946E26935EA02020CBF01230023B3420D
:103F6000F2D1FDF7FBFFA0EB090040452ED83C68DD
:103F70002246B8F1000F2AD023685807E9D5E36933
:103F80001905E6D54FF40063236254E8003F23F49B
:103F9000D07344E8003139B152E8003F23F4D073C4
:103FA00042E800310029F7D102F1080353E8003F4D
:103FB00023F0010302F1080040E800310029F3D1A9
:103FC0002023BB67FB67C7F8803017E03A6852E8E8
:103FD000003F23F4D07342E800310029F7D102F109
:103FE000080353E8003F23F0010302F1080040E812
:103FF00000310029F3D12023BB67FB67002387F83A
:1040000074300320A1E700BF2DE9F0430446806F20
:10401000202883B040F0A9808846002947D0174661
:10402000002A44D01D4694F87430012B00F09D8086
:10403000012384F874304FF000092123C4F88090E4
:10404000A367FDF78BFFA368A4F85070B3F5805FFA
:10405000A4F85270064600F08C80B4F8523000226A
:104060009BB284F87420B3B123686A1C23D1DA6947
:104070001006FCD5B8F1000F72D018F8012B1A8584
:10408000B4F85220013A92B2A4F85220B4F8522067
:1040900092B2002AE9D10095334600224021204601
:1040A000FFF740FF002857D12023A36700E001203D
:1040B00003B0BDE8F083DA691106DBD4FDF74EFFEB
:1040C000801B85422ED323681A4665B319684907B9
:1040D000F1D5D9690F05EED54FF40061196253E8A7
:1040E000001F21F4D07143E8001038B152E8003FBE
:1040F00023F4D07342E800310029F7D102F108031C
:1041000053E8003F23F0010302F1080040E80031CA
:104110000029F3D12023A36784F87410E367C4F85F
:10412000803019E0226852E8003F23F4D07342E85F
:1041300000310029F7D102F1080353E8003F23F0D2
:10414000010302F1080040E800310029F3D12023E7
:10415000A36784F87410E367032003B0BDE8F0831D
:1041600039F8022BC2F3080289E7022003B0BDE848
:10417000F0832369002B7FF470AFC14698466CE74B
:10418000002862D070B5836F82B00446002B49D0FE
:1041900022682423A367136823F0010320461360D9
:1041A000FFF786FD01283AD0636A002B33D12368DC
:1041B000596821F490415960996821F02A01996069
:1041C0001968002541F001011960C4F88050FDF71D
:1041D000C5FE23681A68120706460CD41B685B07E5
:1041E00025D400232022A26784F87430E2671846A1
:1041F000236602B070BD6FF07E4300932A460346EB
:104200004FF400112046FFF78DFEE0B923681B68CC
:104210005B070CD4E5E72046FFF72CFEC7E701203B
:1042200002B070BD80F87430FDF7E2F8B0E76FF0CF
:104230007E430093002233464FF480012046FFF76F
:1042400071FE0028CDD00320D3E70120704700BFC6
:1042500038B5002201F07F010446FDF783FB002200
:1042600011462046FDF77EFB0022114605462046FA
:10427000FDF778FB2D020022114605432046FDF78D
:1042800071FB2D0240EA05030122002120461C0299
:10429000FDF768FB204338BD38B541F08001044686
:1042A00015460022FDF75EFB290E00222046FDF791
:1042B00059FBC5F3074100222046FDF753FBC5F328
:1042C000072100222046FDF74DFBE9B220460122DE
:1042D000BDE83840FDF746BB70B501F07F011646DA
:1042E00000220446FDF73EFB002211462046FDF762
:1042F00039FB0022114605022046FDF733FB002260
:10430000114605432046FDF72DFB2D0240EA05032B
:104310000122204600211C02FDF724FB20432EB180
:10432000012E01D1000C70BD002070BD80B270BDA7
:104330002DE9F0410E46904601F07F01002204462F
:104340001F46FDF70FFB002211462046FDF70AFB32
:104350000022114605022046FDF704FB002211460B
:1043600005432046FDF7FEFA2D02054301220021F8
:104370002046FDF7F7FA2D020543B8F1000F22D0D1
:10438000B8F1010F01D167F31F4546F0800100220B
:104390002046FDF7E7FA290E00222046FDF7E2FA53
:1043A000C5F3074100222046FDF7DCFAC5F30721DB
:1043B00000222046FDF7D6FAE9B220460122BDE8E8
:1043C000F041FDF7CFBA67F30F05DEE770B50022C5
:1043D0000E4663210446FDF7C5FA00221146204629
:1043E000FDF7C0FA0022114605022046FDF7BAFA91
:1043F0000022114605432046FDF7B4FA2D0205437D
:10440000012200212046FDF7ADFA2D02054325F0DB
:10441000FF0535430022E3212046FDF7A3FA290ECC
:1044200000222046FDF79EFAC5F3074100222046F0
:10443000FDF798FAC5F3072100222046FDF792FA0E
:10444000E9B220460122BDE87040FDF78BBA00BFFB
:1044500070B500220E4669210446FDF783FA00225A
:1044600011462046FDF77EFA00221146050220463D
:10447000FDF778FA0022114605432046FDF772FA4F
:104480002D0240EA05030122002120461C02FDF70F
:1044900069FA2043001406FB00F00028B8BFFF3083
:1044A000001270BD70B50B4614465E210022054611
:1044B000240294FBF3F4FDF755FA00221146284636
:1044C000FDF750FA0022114606022846FDF74AFA87
:1044D0000022114606432846FDF744FA36020643F9
:1044E000012200212846FDF73DFA36023043000C38
:1044F0000004A4B204430022DE212846FDF732FA6C
:10450000210E00222846FDF72DFAC4F307410022B0
:104510002846FDF727FAC4F3072100222846FDF7B5
:1045200021FAE1B228460122BDE87040FDF71ABA2F
:1045300038B500226A210446FDF714FA002211461C
:104540002046FDF70FFA0022114605462046FDF7EA
:1045500009FA2D020022114605432046FDF702FA12
:104560002D0240EA05030122002120461C02FDF72E
:10457000F9F9204338BD00BF38B5002201F07F01B2
:104580000446FDF74BFA002211462046FDF746FA95
:104590000022114605462046FDF740FA2D02002272
:1045A000114605432046FDF739FA2D0240EA05037E
:1045B0000122002120461C02FDF730FA204338BDBD
:1045C00038B541F08001044615460022FDF726FA71
:1045D000290E00222046FDF721FAC5F307410022EB
:1045E0002046FDF71BFAC5F3072100222046FDF700
:1045F00015FAE9B220460122BDE83840FDF70EBAAF
:10460000EFF305832BB9064B186828B901221A600D
:1046100070476FF0050070474FF0FF30704700BFE4
:104620007011002010B5EFF3058474B9084B1A68B7
:10463000012A07D107490222CC771A6001F000FC59
:10464000204610BD4FF0FF3010BD6FF0050010BDCB
:104650007011002000ED00E0EFF305830BB101F0D5
:104660008BBC01F083BC00BFF0B587B000251446B9
:104670000595EFF3058212B1002007B0F0BD0028C8
:10468000FAD00CB3A369DBB918236268D207F3D45C
:10469000656935B3AA08A668D4F800C0E76816B300
:1046A000B7F5C07FE8D32469002CE5D0002DE3D016
:1046B0000093CDE901460B46614601F087FADCE73D
:1046C0005D1E372DE1D9D7E78022182300930B46D2
:1046D000214605AC019401F0B5FA0128CCD105982A
:1046E000CBE78022D7E7002FC6D12469002CC3D1A5
:1046F00092B26446EAE700BFEFF305823AB908B523
:1047000008B9002008BD01F045FB002008BD6FF08E
:104710000500704730B583B0EFF3058565B90446F1
:1047200001F024FC211A0029019008DD01A801F004
:10473000B9FA284603B030BD6FF00500FAE76FF014
:104740000300F7E7044B036010B48023034C0C60B4
:104750005DF8044B13607047F00F0020F00D00204F
:10476000054B036010B44FF48073044C0C605DF88B
:10477000044B1360704700BF700C002070080020CD
:1047800000F108034FF0FF310022C0E90131C3609E
:1047900003610260704700BF00230361704700BFE0
:1047A0004268036810B494680133C1E90124616070
:1047B00091605DF8044B08610360704730B40D6888
:1047C0006B1C10D000F108031C465B681A68AA42F3
:1047D000FAD902684B60013299608C6061600861AF
:1047E00030BC0260704704696368F2E7036910B483
:1047F000D0E901125C688A608442516008BF5A6047
:104800001A685DF8044B0021013A01611A601868CA
:10481000704700BF08480068006880F308884FF0C0
:10482000000080F3148862B661B6BFF34F8FBFF308
:104830006F8F00DF00BF000008ED00E0DFF80C0024
:10484000016841F4700101607047000088ED00E0EC
:104850000E4B1B6882B000220133019208D04FF04A
:10486000500383F31188BFF36F8FBFF34F8FFEE7C1
:104870004FF0500383F31188BFF36F8FBFF34F8F57
:10488000019B002BFCD002B0704700BF54000020F9
:1048900010B44FF08073074C40F8043C21F0010144
:1048A0006FF0020340E9034140E909325DF8044B2F
:1048B0004438704751480008000000000000000024
:1048C000074B19680868B0E8F04F80F30988BFF318
:1048D0006F8F4FF0000080F311887047AFF30080B6
:1048E00028DA00204FF0500383F31188BFF36F8F55
:1048F000BFF34F8F0B4A13680133012B136000D0B5
:1049000070474FF0E023D3F8043DDBB2002BF7D023
:104910004FF0500383F31188BFF36F8FBFF34F8FB6
:10492000FEE700BF54000020084A136843B94FF067
:10493000500383F31188BFF36F8FBFF34F8FFEE7F0
:10494000013B13600BB983F31188704754000020BA
:10495000EFF30980BFF36F8F154B1A681EF0100F2D
:1049600008BF20ED108A20E9F04F10602DE9090002
:104970004FF0500080F31188BFF34F8FBFF36F8F5C
:1049800001F012FB4FF0000080F3118809BC196898
:104990000868B0E8F04F1EF0100F08BFB0EC108AA6
:1049A00080F30988BFF36F8F704700BFAFF30080BB
:1049B00028DA002008B54FF0500383F31188BFF3C5
:1049C0006F8FBFF34F8F01F0DFFA28B14FF0E02374
:1049D0004FF08052C3F8042D002383F3118808BDE3
:1049E0004FF0E02200230649136193610B680549EB
:1049F000A1FB03139B090720013B53611061704722
:104A000000000020D34D62104FF0E023484AD3F855
:104A1000001D914241D0D3F8002D464B9A4233D02D
:104A200070B5454B454C1A78454884B0FF21D2B249
:104A3000029219701B78DBB28DF807309DF80730B1
:104A40009DF8072003F05003072112062370016030
:104A500048BF06220FD59DF807305B00DBB28DF80A
:104A600007309DF807301B06114602F1FF32F2D4E1
:104A700003291BD001604FF0500383F31188BFF36B
:104A80006F8FBFF34F8FFEE74FF0500383F3118812
:104A9000BFF36F8FBFF34F8FFEE74FF0500383F3E9
:104AA0001188BFF36F8FBFF34F8FFEE7029B224A3F
:104AB000244D4FF0E0244FF44071DBB201601370DD
:104AC000D4F8203D43F47003C4F8203DD4F8203DD1
:104AD00043F07043C4F8203D0026FFF781FF2E60AD
:104AE000FFF7ACFED4F8343F43F04043C4F8343F02
:104AF000FFF790FE01F058FA2B680396013308D0B7
:104B00004FF0500383F31188BFF36F8FBFF34F8FC4
:104B1000FEE74FF0500383F31188BFF36F8FBFF3AD
:104B20004F8F039B002BFCD0002004B070BD00BF52
:104B300071C20F4170C20F4100E400E07811002003
:104B40007411002054000020EFF305830F2B0ED9C1
:104B50001149124A5B5C12789A4208D94FF050030F
:104B600083F31188BFF36F8FBFF34F8FFEE74FF0D2
:104B7000E0230B4AD3F80C3D126803F4E063934240
:104B800008D94FF0500383F31188BFF36F8FBFF341
:104B90004F8FFEE7704700BFF0E300E07811002080
:104BA000741100202DE9F843044601F0C7F9514A79
:104BB0001568002D35D0504B1E6834422BD154B3AC
:104BC00004F1080064071CBF20F00700083010B390
:104BD000DFF838E1DEF800C084451CD3474C236879
:104BE00003E01A6822B11C46134659688142F8D383
:104BF000AB4210D01A6822600A1A102A46D91C1833
:104C000061072CD04FF0500383F31188BFF36F8FEF
:104C1000BFF34F8FFEE701F099F900242046BDE86D
:104C2000F883374B3548344F5D07364D18BF07338F
:104C300025F0070518BF23F007031560324A03600B
:104C40001946EB1A1360314A4FF0004613600022F8
:104C500042603E60C5E90022C1E90053ADE76260F1
:104C6000264A5860174612689442FBD87968D4F8EF
:104C7000048007EB01094C4528D004EB08018A4267
:104C80002ED022600146A74218BF3C601E4804682F
:104C9000ACEB0102A24238BF02601D48CEF80020F2
:104CA00002683143002503F10804596001321D6098
:104CB000026001F04BF96307B0D04FF0500383F36B
:104CC0001188BFF36F8FBFF34F8FFEE7884407EB68
:104CD00008018A42C7F8048001D05968D6E73C46EB
:104CE000AA421CBF5168126822601CBF4144616027
:104CF0005968C8E7901100207C1100209411002011
:104D00009C110020E4D40020881100208C11002088
:104D100084110020D0B12C4A50F8043C1268134290
:104D20000BD050F8081C91B14FF0500383F3118859
:104D3000BFF36F8FBFF34F8FFEE74FF0500383F346
:104D40001188BFF36F8FBFF34F8FFEE7704770B5C9
:104D500023EA020382B040F8043C1C4C019001F0AD
:104D6000EDF80198226850F8045C194B5119216044
:104D7000A0F1080219461B689A42FBD84E688C19AC
:104D8000A24211D002EB050E734513D040F8083C47
:104D9000914218BF0A600F4A13680133136002B0D2
:104DA000BDE8704001F0D2B835444A1993424D60D5
:104DB000F1D10A4608480068834203D0D3E90004D1
:104DC000631953601060E3E77C1100208C11002010
:104DD000941100208011002090110020036C70B508
:104DE000856B04462BB9066801355EB31846A5638A
:104DF00070BD164682B91A464068FBF7FBF9636836
:104E0000216CA2680B449342636024BF23686360F3
:104E100001350020A56370BD1A46C068FBF7EAF9AA
:104E2000226CE36851429B1A2268E360934202D2EB
:104E3000A3680B44E360022EEAD1012D38BF01259F
:104E40000020D4E7806801F031FAA660CFE700BF08
:104E500030B583B09DF8185040B94FF0500383F33C
:104E60001188BFF36F8FBFF34F8FFEE71C4683B1EE
:104E7000002A4AD0B1B150230193019B502B1AD084
:104E80004FF0500383F31188BFF36F8FBFF34F8F41
:104E9000FEE74FF0500383F31188BFF36F8FBFF32A
:104EA0004F8FFEE74FF0500383F31188BFF36F8FEE
:104EB000BFF34F8FFEE7019B22600123C4E90F017E
:104EC00084F84630FFF70EFDD4E90F2321686160B6
:104ED00003FB02F2D31A0A44A26000220B44A2632D
:104EE000FF2284F84420E36084F8452004F1100098
:104EF000FFF746FC04F12400FFF742FCFFF714FD26
:104F0000204684F84C5003B030BD39B9502301938A
:104F1000019B502BB4D1019B2246CDE74FF05003AB
:104F200083F31188BFF36F8FBFF34F8FFEE700BF8E
:104F30002DE9F04385B00192002843D088461F46F2
:104F4000044699B3022F0BD1E36B012B08D04FF02D
:104F5000500383F31188BFF36F8FBFF34F8FFEE7CA
:104F600001F094F9002836D0FFF7BCFCA26BE36B8C
:104F70009A4201D3022F3AD13A4641462046FFF7E2
:104F80002DFF636A002B40F04B8148B14FF0E023C6
:104F90004FF08052C3F8042DBFF34F8FBFF36F8FD4
:104FA000FFF7C2FC012005B0BDE8F083036C002BC5
:104FB000C8D04FF0500383F31188BFF36F8FBFF356
:104FC0004F8FFEE74FF0500383F31188BFF36F8FCD
:104FD000BFF34F8FFEE7019B002BC5D04FF050036E
:104FE00083F31188BFF36F8FBFF34F8FFEE700226B
:104FF00004F12406019B002B00F0D180002A00F070
:10500000CA80FFF791FC00F099FFFFF76BFC94F862
:105010004430FF2B04BF002384F8443094F845301B
:10502000FF2B04BF002384F84530FFF77DFC01A966
:1050300002A801F0E3F8002840F0B580FFF752FC29
:10504000A26BE36B9A424CD0FFF76EFCFFF74AFC71
:1050500094F8452055B2002D04DC11E06A1ED3B24D
:1050600055B26BB1636A304653B101F077F800284E
:10507000F4D001F005F96A1ED3B255B2002BF1D17C
:10508000FF2384F84530FFF74FFCFFF72BFC94F823
:10509000442055B2002D14DD04F1100903E06A1E0E
:1050A000D3B255B26BB12369484653B101F056F8FB
:1050B0000028F4D001F0E4F86A1ED3B255B2002BF8
:1050C000F1D1FF2384F84430FFF72EFC00F03EFFBF
:1050D000FFF708FCA26BE36B9A42FFF44DAF01228D
:1050E00088E704F11009FFF71FFC0199484600F01A
:1050F000A7FFFFF7F7FB94F845305DB2002D04DC05
:1051000011E06B1EDAB25DB26AB1636A304653B128
:1051100001F024F80028F4D001F0B2F86B1EDAB2E6
:105120005DB2002AF1D1FF2384F84530FFF7FCFB84
:10513000FFF7D8FB94F844305DB2002D04DC11E099
:105140006B1EDAB25DB26AB12369484653B101F011
:1051500005F80028F4D001F093F86B1EDAB25DB2C6
:10516000002AF1D1FF2384F84430FFF7DDFB00F083
:10517000EDFE48B94FF0E0234FF08052C3F8042D04
:10518000BFF34F8FBFF36F8FFFF7ACFBA36BE26BE7
:105190009A42A4D9F0E602A801F024F831E7FFF71B
:1051A000C3FB0020FFE6FFF79DFB94F845305DB29E
:1051B000002D10DD04F1240603E06B1EDAB25DB2AF
:1051C0004AB1636A304633B100F0C8FF0028F4D01A
:1051D00001F056F8F1E7FF2384F84530FFF7A4FB10
:1051E000FFF780FB94F844305DB2002D10DD04F130
:1051F000100603E06B1EDAB25DB24AB12369304695
:1052000033B100F0ABFF0028F4D001F039F8F1E73A
:10521000FF2384F84430FFF787FB00F097FEC0E7D8
:1052200004F1240000F09AFF00283FF4B9AEADE687
:105230002DE9F04385B00192002800F064810F460B
:105240000446002900F0978001F020F8002800F0C3
:105250009F80FFF747FBA56B002D75D1019B002BAD
:1052600000F0F48002A800F0BDFFA84604F1240677
:10527000FFF75AFB00F062FEFFF734FB94F844306E
:10528000FF2B08BF84F8448094F84530FF2B08BFFB
:1052900084F84580FFF748FB01A902A800F0AEFFA3
:1052A000002840F08280FFF71DFBA36B002B00F06D
:1052B000D380FFF739FBFFF715FB94F845305DB25B
:1052C000002D14DD04F1240903E06B1EDAB25DB297
:1052D0006AB1636A484653B100F040FF0028F4D039
:1052E00000F0CEFF6B1EDAB25DB2002AF1D1FF23CF
:1052F00084F84530FFF718FBFFF7F4FA94F84430D0
:105300005DB2002D14DD04F1100903E06B1EDAB26A
:105310005DB26AB12369484653B100F01FFF00280F
:10532000F4D000F0ADFF6B1EDAB25DB2002AF1D10D
:10533000FF2384F84430FFF7F7FA00F007FEFFF789
:10534000D1FAA56B002D7DD0226C52B1E168A36823
:1053500011449942E16024BF2168E1603846FAF7C0
:1053600049FF013DA5632369002B40F0D580FFF77D
:10537000DBFA01206DE0036C002B3FF465AF4FF0CA
:10538000500383F31188BFF36F8FBFF34F8FFEE796
:10539000019B002B3FF45DAF4FF0500383F3118866
:1053A000BFF36F8FBFF34F8FFEE7FFF79BFA94F8C1
:1053B00045305DB2002D04DC11E06B1EDAB25DB247
:1053C0006AB1636A304653B100F0C8FE0028F4D0D9
:1053D00000F056FF6B1EDAB25DB2002AF1D1FF2356
:1053E00084F84530FFF7A0FAFFF77CFA94F84430D0
:1053F0005DB2002D14DD04F1100903E06B1EDAB27A
:105400005DB26AB12369484653B100F0A7FE002897
:10541000F4D000F035FF6B1EDAB25DB2002AF1D194
:10542000FF2384F84430FFF77FFA00F08FFDFFF789
:1054300059FAA36B53B1FFF777FAFFF753FAA56B4D
:10544000002D81D1019B002B7FF412AFFFF76CFA86
:10545000002005B0BDE8F08304F12409FFF764FAE9
:105460000199484600F0ECFDFFF73CFA94F845300E
:105470005DB2002D04DC11E06B1EDAB25DB26AB1E0
:10548000636A484653B100F069FE0028F4D000F08A
:10549000F7FE6B1EDAB25DB2002AF1D1FF2384F869
:1054A0004530FFF741FAFFF71DFA94F844305DB23A
:1054B000002D14DD04F1100903E06B1EDAB25DB2B9
:1054C0006AB12369484653B100F048FE0028F4D081
:1054D00000F0D6FE6B1EDAB25DB2002AF1D1FF23D6
:1054E00084F84430FFF720FA00F030FD0028A4D102
:1054F0004FF0E0234FF08052C3F8042DBFF34F8FDD
:10550000BFF36F8F99E74FF0500383F31188BFF318
:105510006F8FBFF34F8FFEE704F1100000F01EFE07
:1055200000283FF424AF4FF0E0234FF08052C3F83F
:10553000042DBFF34F8FBFF36F8F18E7124B1A681C
:105540007AB19A6862B11A6992B19A6992B11A6A8B
:1055500092B19A6A92B11A6B92B19A6B92B17047FA
:10556000012203EBC20C43F83210CCF80400704760
:105570000222F6E70322F4E70422F2E70522F0E72D
:105580000622EEE70722ECE7F0D4002070B50546CE
:105590000E461446FFF7A6F995F84430FF2B04BFDA
:1055A000002385F8443095F84530FF2B04BF0023D5
:1055B00085F84530FFF7B8F9AB6B002B43D0FFF708
:1055C00091F995F845305CB2002C14DD05F1240604
:1055D00003E0631EDAB25CB26AB16B6A304653B163
:1055E00000F0BCFD0028F4D000F04AFE631EDAB2E1
:1055F0005CB2002AF1D1FF2385F84530FFF794F91A
:10560000FFF770F995F844305CB2002C14DD05F119
:10561000100603E0631EDAB25CB26AB12B69304651
:1056200053B100F09BFD0028F4D000F029FE631E6A
:10563000DAB25CB2002AF1D1FF2385F84430BDE82C
:105640007040FFF771B92246314605F1240000F0A1
:105650003BFDB4E72DE9F8430546FFF743F9344A2B
:10566000344E1368013313603368002B31D0324C51
:10567000E86A236833B3314F314A32491368013342
:1056800013606B640B68834238BF086000EB8000D6
:1056900007EB8000291DFFF783F8FFF745F9236822
:1056A00073B13268EB6AD26A9A4209D24FF0E023B2
:1056B0004FF08052C3F8042DBFF34F8FBFF36F8FAD
:1056C000BDE8F88333681D4FDB6A834298BF3560BD
:1056D000D2E735601368012B03D0E86A174F164CE8
:1056E000CAE7164F3C4607F58C6820461434FFF78E
:1056F00047F8A045F9D1DFF86490DFF864800E4CDC
:105700004846FFF73DF84046FFF73AF80E48FFF7E6
:1057100037F80E48FFF734F80D48FFF731F80D4B16
:10572000E86AC3F800900C4BC3F80080A4E700BF00
:1057300054D5002028DA002048D50020C8D5002004
:1057400038D500204CD5002084D5002070D500200D
:1057500058D500209CD5002098D50020B4D5002035
:10576000A0D500202DE9F0470A9CDDF82490960092
:10577000324607460D46206BA521984601F01CFFD6
:10578000236B043E1E4426F00706002D00F08280A5
:105790002B7884F83430002B36D06B7884F8353091
:1057A00093B3AB7884F8363073B3EB7884F8373042
:1057B00053B32B7984F8383033B36B7984F83930AC
:1057C00013B3AB7984F83A30F3B1EB7984F83B301A
:1057D000D3B12B7A84F83C30B3B16B7A84F83D3086
:1057E00093B1AB7A84F83E3073B1EB7A84F83F30F2
:1057F00053B12B7B84F8403033B16B7B84F841305C
:1058000013B1AB7B84F84230002384F84330089D09
:10581000372D28BF37254FF0000AE562E564201DCB
:10582000C4F850A0FEF7B8FFC5F1380504F1180020
:10583000FEF7B2FFA561C4F878A151464FF490720B
:105840002461646284F87CA104F1580001F0B4FE84
:10585000124BE36503F16805D03325666366104D8E
:10586000104BC4E93E53104BC4F800313946304662
:105870000B2301260027C4E93C674246A4F8043103
:10588000FFF706F82060B9F1000F01D0C9F8004019
:10589000BDE8F08784F83450B9E700BFE0DB0020B2
:1058A0000E33CDAB34126DE6ECDE050080B5234D32
:1058B000234F244EDFF890802B685BB3FFF712F87C
:1058C000FB68DC68201DFEF791FF3368013B336005
:1058D0002B68013B2B60FFF727F804F1580001F01B
:1058E000BDFE94F87D3163B1012B22D0022BE3D0B1
:1058F0004FF0500383F31188BFF36F8FBFF34F8FC7
:10590000FEE7206BFFF706FA2046FFF703FA2B6845
:10591000002BD3D1D8F80030012BCDD94FF0E023A4
:105920004FF08052C3F8042DBFF34F8FBFF36F8F3A
:10593000C2E72046FFF7EEF9BEE700BF6CD50020B6
:1059400070D5002054D50020C8D500202DE9F04F97
:10595000464B1E68013683B01E60002E3ED0444B7D
:1059600001931B689E4246D3424FDFF818913B6873
:10597000DFF814A11D68002D73D0DFF81081002519
:1059800020E0FEF733FFA36A04F118000BB1FEF725
:105990002DFFE36AD8F8002003EB830093425946B9
:1059A00009EB800088BFC8F80030FEF7F9FEDAF88E
:1059B00000203B68E16AD26A1B68914228BF01253A
:1059C000002B4ED03B68DB68DC68636804F1040B95
:1059D0009E425846D5D2019A136011E0254B1A68B1
:1059E00012680AB34FF0500383F31188BFF36F8F2F
:1059F000BFF34F8FFEE7DFF88C90DFF88CA0002517
:105A0000DAF800301C49DB6A03EB83039B0059F88A
:105A100003200B68022A28BF0125002B0CBF284653
:105A2000012003B0BDE8F08F144A186811681960AE
:105A3000134910600A6801320A601A6812683AB99C
:105A40000B4B01931A464FF0FF331360134688E760
:105A50001B68074ADB680192DB685B6813601346CA
:105A60007FE7019A4FF0FF331360C9E750D500205C
:105A700034D500209CD5002040D5002098D50020AA
:105A80003CD50020C8D5002028DA00204CD50020C5
:105A90002DE9F84F434DFEF725FF2B68013B2B60A6
:105AA0002B68002B68D1404B1B68002B64D03F4E05
:105AB0003368002B73D03E4FDFF80491DFF8048188
:105AC000DFF804A1F368D3F80CB00BF104040BF178
:105AD0001800FEF78BFE2046FEF788FEDBF82C2030
:105AE00021463C6802EB8200A24209EB800088BF9D
:105AF0003A60FEF755FED8F80010DBF82C20CB6A90
:105B00009A423FD30123CAF800303368002BD9D121
